:100000000C943C000C9459000C9459000C94590029
:100010000C9459000C9459000C9459000C945900FC
:100020000C9459000C9459000C9459000C945900EC
:100030000C9459000C9468020C9459000C945900CB
:100040000C9459000C9459000C9439050C946705D4
:100050000C9459000C9459000C9459000C945900BC
:100060000C9459000C9459009E02D20224033B03C5
:10007000B303CD037104BA0411241FBECFEFD8E03F
:10008000DEBFCDBF11E0A0E0B1E0ECE2F1E102C0E3
:1000900005900D92A03EB107D9F722E0A0EEB1E0A5
:1000A00001C01D92AD32B207E1F70E9479010C94B4
:1000B00094080C940000FC01408121E030E002C073
:1000C000220F331F6A95E2F7242B20830895FC0149
:1000D000908121E030E002C0220F331F6A95E2F7E1
:1000E0002095292320830895FC01408121E030E000
:1000F00002C0220F331F6A95E2F7242B2083089554
:1001000085B1826085B985E08A95F1F7000085B1F7
:100110008D7F85B90895CF93C82F662321F085B1CF
:10012000816085B903C085B18E7F85B98AB1806150
:100130008AB98AB180628AB98AB180648AB98AB17F
:1001400080688AB98BB18F778BB98BB18F7B8BB974
:100150008BB18F7D8BB98BB18F7E8BB9CC231CF487
:100160008BB180688BB9C6FF03C08BB180648BB93B
:10017000C5FF03C08BB180628BB9C4FF03C08BB1D4
:1001800080618BB90E9480008BB18F778BB98BB166
:100190008F7B8BB98BB18F7D8BB98BB18F7E8BB9F8
:1001A000C3FF03C08BB180688BB9C2FF03C08BB1A2
:1001B00080648BB9C1FF03C08BB180628BB9C0FF73
:1001C00003C08BB180618BB90E9480008BB18061CC
:1001D0008BB98BB180628BB98BB180648BB98BB1D9
:1001E00080688BB987EB9BE00197F1F700C00000B6
:1001F000CF91089560E00E948B00089561E00E9415
:100200008B000895611104C080580E94FA0008957F
:1002100080540E94FA00089581E00E94FA00089537
:1002200061E00E948B000895CF93DF93FC0103C02F
:100230000E941001FE01EF01219680818111F8CF0B
:10024000DF91CF910895CF93C82F84B1816084B995
:100250008AB180628AB984B1826084B98AB18061CE
:100260008AB98AB180628AB98AB180648AB98AB14E
:1002700080688AB98FEF99EF0197F1F700C000000D
:100280008BB180628BB98BB180618BB90E94800089
:100290008FE19EE40197F1F700C000000E9480000A
:1002A0008FEF90E00197F1F700C000000E948000FE
:1002B0008FEF90E00197F1F700C000008BB18F7EC7
:1002C0008BB90E9480008FEF90E00197F1F700C09A
:1002D000000088E20E94FA0088E00E94FA000E9472
:1002E0000C0186E00E94FA008C2F0E94FA00CF9148
:1002F000089563E08AE290E00E945B0062E08AE297
:1003000090E00E945B0062E084E290E00E945B006B
:1003100063E08BE290E00E94670062E08BE290E095
:100320000E94670062E085E290E00E9467008CE036
:100330000E9423010E94EF0480ED0E94FE048111BF
:100340001AC00E941B0580E00E941B0585E40E94E4
:100350001B0582E00E941B0580E00E941B0580E0D7
:100360000E941B0580E00E941B0580E00E941B0587
:1003700080E00E941B0580E40E94FA00C0E00CC0EF
:10038000EC2FF0E0EE0FFF1FEE0FFF1FED5FFE4FB3
:1003900080810E94FE00CF5FC83190F380E80E9408
:1003A000FA0060E080E00E94020185E691E00E9490
:1003B000140160E08AE00E94020181E00E941001C5
:1003C00080E30E9410018FED0E94100183E40E94DF
:1003D000100161E080E00E94020180E00E941001B3
:1003E00061E08AE00E94020182E00E94100161E067
:1003F0008EE00E940201EAE7F0E08081806880835D
:10040000808181608083808182608083808184603C
:10041000808387E690E00E9491058EE691E00E943D
:10042000C105E1E8F0E080818A7F8083808182607D
:100430008083EFE6F0E08081816080837894FFCF55
:10044000ECE7F0E080818064808380818F77808317
:1004500080818E7F808380818D7F808380818B7F70
:1004600080838081877F808380818083EAE7F0E0DA
:1004700080818064808380917A0086FDFCCF8091AA
:100480007800909179000895ECE7F0E08081806435
:10049000808380818F778083808181608083808169
:1004A0008D7F808380818B7F80838081877F808325
:1004B00080818083EAE7F0E080818064808380919E
:1004C0007A0086FDFCCF80917800909179000895A4
:1004D0001F920F920FB60F9211242F933F934F93B9
:1004E0005F936F937F938F939F93AF93BF93EF939C
:1004F000FF93CF93DF93CDB7DEB72D97DEBFCDBF90
:1005000019821A8280E290E09C838B83FE013596EB
:1005100086E0DF011D928A95E9F71C861B861D8601
:10052000E09102018E2F90E0FC013197E830F10557
:1005300008F039C2EC5CFF4F0C9424084091000194
:1005400050910101473CB1E05B0740F0109201017E
:100550001092000182E08093020128C29A01ABEA66
:10056000BAEA0E942A0896958795969587959C01E8
:10057000220F331F820F931F880F991F48175907A7
:1005800051F44F5F5F4F509301014093000186E0AB
:10059000809302010BC24F5F5F4F50930101409364
:1005A000000104C288EB0E94FE04811104C082E0B5
:1005B0000E941B0504C08EE791E00E94C10589EBF3
:1005C0000E94FE0481113CC00E9425058093E50134
:1005D0004AE0BE016F5F7F4F90E00E945708CE0156
:1005E00001960E94C10582E991E00E94C1050E9426
:1005F0002F058093E5014AE0BE016E5F7F4F90E0DA
:100600000E945708CE0102960E94C1058BE791E037
:100610000E94C10560E08BE00E940201CE010196BC
:100620000E94140182E991E00E941401CE01029619
:100630000E941401CE0101960E9439088093E501C1
:1006400084E080930201B2C18091E5018D3150F0C8
:1006500063E08BE290E00E94740084E991E00E94E4
:10066000C10505C063E08BE290E00E94670085E071
:10067000809302019BC10E9420029093E401809329
:10068000E301893923E0920738F088E993E09093F9
:10069000E4018093E30109C0883F924030F488EF81
:1006A00092E09093E4018093E3016091E301709103
:1006B000E401685F724080E090E00E94DC0620E088
:1006C00030E040E253E40E943B069B01AC0160E055
:1006D00070E080E89FE30E94CE0520E030E048EC27
:1006E00052E40E946A070E94D7070E94AD06DC010F
:1006F000CB019093E4018093E3014AE0BE01655F82
:100700007F4F0E9457088091E3019091E4019093FC
:10071000E7018093E60185EA91E00E94C105CE01E0
:100720000B960E94C1058BE791E00E94C10561E034
:1007300081E00E94020186EB91E00E94140161E0D9
:1007400081E00E940201CE010B960E94140161E03B
:1007500084E00E9402018AEB91E00E94140186E08D
:100760008093020123C18091E6019091E7018035D9
:10077000910550F462E08BE290E00E9474008CEBF3
:1007800091E00E94C10505C062E08BE290E00E940A
:10079000670081E08093020109C180ED0E94FE04A0
:1007A000811102C00E941B0581ED0E94FE0481118F
:1007B00086C060E00E94020185E691E00E9414017B
:1007C0000E942505982F9F7082958F708770809367
:1007D000E2014AE0BE016D5F7F4F892F90E00E94E9
:1007E000570860E087E00E940201CE0103960E9454
:1007F00014018091E2014AE0BE016D5F7F4F90E0FD
:100800000E94570860E086E00E940201CE01039634
:100810000E9414010E942505982F9F7082958F7069
:1008200087708093E1014AE0BE016D5F7F4F892FA1
:1008300090E00E94570860E084E00E940201CE012F
:1008400003960E9414018091E1014AE0BE016D5FB0
:100850007F4F90E00E94570860E083E00E94020111
:10086000CE0103960E9414010E942505982F9F70C7
:1008700082958F7083708093E0014AE0BE016D5FC6
:100880007F4F892F90E00E94570860E081E00E942E
:100890000201CE0103960E9414018091E0014AE01A
:1008A000BE016D5F7F4F90E00E94570860E080E0DE
:1008B0000E940201CE0103960E94140104C08EE73B
:1008C00091E00E94C1058091000190910101892B66
:1008D00021F487E08093020169C081E080930201E6
:1008E00065C00E9444029093E4018093E301853641
:1008F000910530F084E690E09093E4018093E30169
:100900004AE0BE01655F7F4F8091E3019091E40171
:100910000E9457088091E3019091E4019093640153
:100920008093630187EC91E00E94C105CE010B9694
:100930000E94C1058BE791E00E94C10561E08BE058
:100940000E94020186EB91E00E94140161E08BE0BD
:100950000E940201CE010B960E94140161E08EE01C
:100960000E9402018AEB91E00E94140188E08093CA
:1009700002011CC08091630190916401CC9750F4F6
:1009800062E085E290E00E94740085ED91E00E94B3
:10099000C10505C062E085E290E00E94670083E047
:1009A0008093020103C081E0809302012D960FB66F
:1009B000F894DEBF0FBECDBFDF91CF91FF91EF91D5
:1009C000BF91AF919F918F917F916F915F914F9167
:1009D0003F912F910F900FBE0F901F90189587B1E8
:1009E0008F7C87B988B1806388B9E9EBF0E08081BA
:1009F0008C7F808388E98093B800089594EA90936F
:100A0000BC009091BC009923E4F78093BB0084E87C
:100A10008093BC008091BC008823E4F78091B900EA
:100A2000887F883121F0803421F480E0089580E0CF
:100A3000089581E008958093BB0084E88093BC0012
:100A40008091BC008823E4F7089584EC8093BC0077
:100A50008091BC008823E4F78091BB00089584E86E
:100A60008093BC008091BC008823E4F78091BB0098
:100A700008951F920F920FB60F9211242F938F9308
:100A80009F93EF93FF938091C0002091C6008C71DB
:100A9000E091EA01EF5FEF719091E901E91739F018
:100AA000E093EA01F0E0E351FE4F208301C082E0D1
:100AB0009091E801892B8093E801FF91EF919F913C
:100AC0008F912F910F900FBE0F901F9018951F922E
:100AD0000F920FB60F9211248F939F93EF93FF9372
:100AE0009091EC018091EB01981769F0E091EB0196
:100AF000EF5FEF71E093EB01F0E0E35FFD4F80818A
:100B00008093C60005C0E1ECF0E080818F7D80839A
:100B1000FF91EF919F918F910F900FBE0F901F90BB
:100B200018951092EC011092EB011092EA011092CC
:100B3000E901282F392F33231CF422E02093C00031
:100B400090789093C5008093C40088E98093C10099
:100B500086E08093C20008952091EC012F5F2F71F1
:100B60009091EB012917E1F3E22FF0E0E35FFD4FF5
:100B700080832093EC01E1ECF0E08081806280834F
:100B80000895CF93DF93EC0103C021960E94AC053A
:100B900088818111FACFDF91CF9108955058BB27FA
:100BA000AA270E94E6050C9430070E94220738F01D
:100BB0000E94290720F039F49F3F19F426F40C9481
:100BC0001F070EF4E095E7FB0C941907E92F0E942C
:100BD000410758F3BA17620773078407950720F097
:100BE00079F4A6F50C9463070EF4E0950B2EBA2F5A
:100BF000A02D0B01B90190010C01CA01A001112423
:100C0000FF27591B99F0593F50F4503E68F11A16CE
:100C1000F040A22F232F342F4427585FF3CF46955F
:100C200037952795A795F0405395C9F77EF41F1681
:100C3000BA0B620B730B840BBAF09150A1F0FF0F4B
:100C4000BB1F661F771F881FC2F70EC0BA0F621F37
:100C5000731F841F48F4879577956795B795F79527
:100C60009E3F08F0B0CF9395880F08F09927EE0FBC
:100C70009795879508950E944F060C9430070E941F
:100C8000290758F00E94220740F029F45F3F29F01D
:100C90000C94190751110C9464070C941F070E94BF
:100CA000410768F39923B1F3552391F3951B550B35
:100CB000BB27AA2762177307840738F09F5F5F4F2F
:100CC000220F331F441FAA1FA9F335D00E2E3AF06E
:100CD000E0E832D091505040E695001CCAF72BD086
:100CE000FE2F29D0660F771F881FBB1F26173707D7
:100CF0004807AB07B0E809F0BB0B802DBF01FF2709
:100D000093585F4F3AF09E3F510578F00C941907C5
:100D10000C9464075F3FE4F3983ED4F3869577958F
:100D20006795B795F7959F5FC9F7880F911D9695C1
:100D3000879597F90895E1E0660F771F881FBB1F1D
:100D4000621773078407BA0720F0621B730B840BCA
:100D5000BA0BEE1F88F7E09508950E94490788F0C6
:100D60009F5798F0B92F9927B751B0F0E1F0660F6F
:100D7000771F881F991F1AF0BA95C9F714C0B130B0
:100D800091F00E946307B1E008950C946307672F08
:100D9000782F8827B85F39F0B93FCCF386957795DF
:100DA0006795B395D9F73EF49095809570956195C8
:100DB0007F4F8F4F9F4F0895E89409C097FB3EF4F3
:100DC00090958095709561957F4F8F4F9F4F992398
:100DD000A9F0F92F96E9BB279395F6958795779516
:100DE0006795B795F111F8CFFAF4BB0F11F460FFD6
:100DF0001BC06F5F7F4F8F4F9F4F16C0882311F02E
:100E000096E911C0772321F09EE8872F762F05C041
:100E1000662371F096E8862F70E060E02AF09A95DC
:100E2000660F771F881FDAF7880F9695879597F9D1
:100E3000089597F99F6780E870E060E008959FEF5C
:100E400080EC089500240A94161617061806090661
:100E5000089500240A941216130614060506089530
:100E6000092E0394000C11F4882352F0BB0F40F4B8
:100E7000BF2B11F460FF04C06F5F7F4F8F4F9F4FF8
:100E8000089557FD9058440F551F59F05F3F71F07A
:100E90004795880F97FB991F61F09F3F79F08795E1
:100EA0000895121613061406551FF2CF4695F1DF6A
:100EB00008C0161617061806991FF1CF86957105FA
:100EC000610508940895E894BB2766277727CB012E
:100ED00097F908950E947D070C9430070E9422071D
:100EE00038F00E94290720F0952311F00C9419077F
:100EF0000C941F0711240C9464070E94410770F39F
:100F0000959FC1F3950F50E0551F629FF001729FAE
:100F1000BB27F00DB11D639FAA27F00DB11DAA1FBD
:100F2000649F6627B00DA11D661F829F2227B00D0A
:100F3000A11D621F739FB00DA11D621F839FA00D95
:100F4000611D221F749F3327A00D611D231F849FE5
:100F5000600D211D822F762F6A2F11249F5750403C
:100F60009AF0F1F088234AF0EE0FFF1FBB1F661FB7
:100F7000771F881F91505040A9F79E3F510580F080
:100F80000C9419070C9464075F3FE4F3983ED4F384
:100F9000869577956795B795F795E7959F5FC1F724
:100FA000FE2B880F911D9695879597F908950E94BD
:100FB0004907E8F09E37E8F09639B8F49E3848F4CF
:100FC000672F782F8827985FF9CF86957795679553
:100FD00093959539D0F3B62FB1706B0F711D811DAC
:100FE00020F487957795679593950C94FB070C945F
:100FF00016080C946407882371F4772321F0985025
:10100000872B762F07C0662311F499270DC09051C6
:10101000862B70E060E02AF09A95660F771F881F94
:10102000DAF7880F9695879597F908959F3F31F0E5
:10103000915020F4879577956795B795880F911D06
:101040009695879597F90895EE0FFF1F0590F491F7
:10105000E02D0994A29FB001B39FC001A39F700D22
:10106000811D1124911DB29F700D811D1124911DB0
:101070000895FC0188279927E89421912032E9F30B
:10108000293010F02E30C8F32B3241F02D3239F4D4
:10109000689404C00E946208820F911D2191205320
:1010A0002A30C0F31EF4909581959F4F0895BB2779
:1010B0004A3031F4992322F4BDE2909581959F4FF7
:1010C0000C946B087AE0979F902D879F802D910D4F
:1010D00011240895BB27FB015527AA27880F991FC4
:1010E000AA1FA41710F0A41B83955051B9F7A05D57
:1010F000AA3308F0A95DA193009779F7B111B193D4
:101100001192CB010C948408DC01FC01672F7191D2
:101110007723E1F7329704C07C916D9370836291DD
:0C112000AE17BF07C8F30895F894FFCF86
:10112C00C7010100000000040000000E0000001FB9
:10113C000000001F0000001F0000000E0000000057
:10114C00000000040000000A0000000E0000000E69
:10115C000000000E000000150000001F0000000E33
:10116C000000000E0000001100000011000000152E
:10117C00000000150000000E0000000E000000042E
:10118C00000000900130303A30303A303000554198
:10119C00525420456E61626C65642E0D0A004465E4
:1011AC0076696365206E6F7420666F756E642E0DA4
:1011BC000A002E0056656E74696C6174696F6E203E
:1011CC004F4E0D0A004D6F69737475726520766110
:1011DC006C75653A2000202020002500576174654D
:1011EC0072204F4E0D0A004C696768742076616C52
:1011FC0075653A20004C69676874204F4E0D0A00E3
:00000001FF
