S0120000477265656E486F7573652E737265631D
S11300000C943C000C9459000C9459000C94590025
S11300100C9459000C9459000C9459000C945900F8
S11300200C9459000C9459000C9459000C945900E8
S11300300C9459000C9468020C9459000C945900C7
S11300400C9459000C9459000C9437050C946505D4
S11300500C9459000C9459000C9459000C945900B8
S11300600C9459000C945900A002D80220033703C1
S1130070AF03C9036D04B60411241FBECFEFD8E04B
S1130080DEBFCDBF12E0A0E0B1E0EEE3F1E102C0DB
S113009005900D92AC30B107D9F722E0ACE0B2E0A4
S11300A001C01D92A935B207E1F70E9479010C94B1
S11300B09D080C940000FC01408121E030E002C066
S11300C0220F331F6A95E2F7242B20830895FC0145
S11300D0908121E030E002C0220F331F6A95E2F7DD
S11300E02095292320830895FC01408121E030E0FC
S11300F002C0220F331F6A95E2F7242B2083089550
S113010085B1826085B985E08A95F1F7000085B1F3
S11301108D7F85B90895CF93C82F662321F085B1CB
S1130120816085B903C085B18E7F85B98AB180614C
S11301308AB98AB180628AB98AB180648AB98AB17B
S113014080688AB98BB18F778BB98BB18F7B8BB970
S11301508BB18F7D8BB98BB18F7E8BB9CC231CF483
S11301608BB180688BB9C6FF03C08BB180648BB937
S1130170C5FF03C08BB180628BB9C4FF03C08BB1D0
S113018080618BB90E9480008BB18F778BB98BB162
S11301908F7B8BB98BB18F7D8BB98BB18F7E8BB9F4
S11301A0C3FF03C08BB180688BB9C2FF03C08BB19E
S11301B080648BB9C1FF03C08BB180628BB9C0FF6F
S11301C003C08BB180618BB90E9480008BB18061C8
S11301D08BB98BB180628BB98BB180648BB98BB1D5
S11301E080688BB987EB9BE00197F1F700C00000B2
S11301F0CF91089560E00E948B00089561E00E9411
S11302008B000895611104C080580E94FA0008957B
S113021080540E94FA00089581E00E94FA00089533
S113022061E00E948B000895CF93DF93FC0103C02B
S11302300E941001FE01EF01219680818111F8CF07
S1130240DF91CF910895CF93C82F84B1816084B991
S11302508AB180628AB984B1826084B98AB18061CA
S11302608AB98AB180628AB98AB180648AB98AB14A
S113027080688AB98FEF99EF0197F1F700C0000009
S11302808BB180628BB98BB180618BB90E94800085
S11302908FE19EE40197F1F700C000000E94800006
S11302A08FEF90E00197F1F700C000000E948000FA
S11302B08FEF90E00197F1F700C000008BB18F7EC3
S11302C08BB90E9480008FEF90E00197F1F700C096
S11302D0000088E20E94FA0088E00E94FA000E946E
S11302E00C0186E00E94FA008C2F0E94FA00CF9144
S11302F0089563E08AE290E00E945B0062E08AE293
S113030090E00E945B0062E084E290E00E945B0067
S113031063E08BE290E00E94670062E08BE290E091
S11303200E94670062E085E290E00E9467008CE032
S11303300E9423010E94ED0480ED0E94FC048111BF
S11303401AC00E94190580E00E94190585E40E94E4
S1130350190582E00E94190580E00E94190580E0D9
S11303600E94190580E00E94190580E00E94190589
S113037080E00E94190580E40E94FA00C0E00CC0ED
S1130380EC2FF0E0EE0FFF1FEE0FFF1FED5FFE4FAF
S113039080810E94FE00CF5FC83190F380E80E9404
S11303A0FA0060E080E00E94020185E691E00E948C
S11303B0140160E08AE00E94020181E00E941001C1
S11303C080E30E9410018FED0E94100183E40E94DB
S11303D0100161E080E00E94020180E00E941001AF
S11303E061E08AE00E94020182E00E94100161E063
S11303F08EE00E940201EAE7F0E080818068808359
S11304008081816080838081826080838081846038
S1130410808387E690E00E948F058EE691E00E943B
S1130420BF05E1E8F0E080818A7F8083808182607B
S11304308083EFE6F0E08081816080837894FFCF51
S1130440ECE7F0E080818064808380818F77808313
S113045080818E7F808380818D7F808380818B7F6C
S113046080838081877F808380818083EAE7F0E0D6
S113047080818064808380917A0086FDFCCF8091A6
S11304807800909179000895ECE7F0E08081806431
S1130490808380818F778083808181608083808165
S11304A08D7F808380818B7F80838081877F808321
S11304B080818083EAE7F0E080818064808380919A
S11304C07A0086FDFCCF80917800909179000895A0
S11304D01F920F920FB60F9211240F931F932F9315
S11304E03F934F935F936F937F938F939F93AF93B8
S11304F0BF93EF93FF93CF93DF93CDB7DEB72D97E1
S1130500DEBFCDBF19821A8280E290E09C838B8388
S1130510FE01359686E0DF011D928A95E9F71C8677
S11305201B861D86E09102018E2F90E0FC0131971D
S1130530E830F10508F033C2EC5CFF4F0C9422085C
S11305404091000150910101473CB1E05B0760F02C
S1130550109201011092000182E0809302018EE763
S113056091E00E94BF051EC29A01ABEABAEA0E945A
S1130570280896958795969587959C01220F331F99
S1130580820F931F880F991F4817590751F44F5F23
S11305905F4F509301014093000186E08093020174
S11305A001C24F5F5F4F5093010140930001FAC1B4
S11305B088EB0E94FC04811103C082E00E941905AB
S11305C089EB0E94FC04811133C00E9423058093AF
S11305D011024AE08E010F5F1F4FB80190E00E94A4
S11305E060080E942D05809311024AE0BE016E5FEF
S11305F07F4F90E00E946008F80101900020E9F725
S113060031978EE290E091838083BE016E5F7F4FCD
S1130610C8010E94550860E08BE00E940201C801F5
S11306200E941401C8010E9437088093110204C07B
S113063080E991E00E94BF0584E080930201B2C189
S1130640809111028A3150F063E08BE290E00E94C5
S113065074008BEA91E00E94BF0505C063E08BE261
S113066090E00E94670085E0809302019BC10E9494
S113067020029093100280930F02893923E092079D
S113068038F088E993E09093100280930F0209C038
S1130690883F924030F488EF92E090931002809368
S11306A00F0260910F0270911002685F724080E047
S11306B090E00E94DA0620E030E040E253E40E9439
S11306C039069B01AC0160E070E080E89FE30E9482
S11306D0CC0520E030E048EC52E40E9468070E9418
S11306E0D5070E94AB06DC01CB01909310028093E6
S11306F00F024AE0BE01655F7F4F0E94600880914F
S11307000F029091100290931302809312028CEBCB
S113071091E00E94BF05CE010B960E94BF058BE7B6
S113072091E00E94BF0561E081E00E9402018DEC2E
S113073091E00E94140161E081E00E940201CE0177
S11307400B960E94140161E084E00E94020181ED95
S113075091E00E94140186E08093020123C18091FC
S11307601202909113028035910550F462E08BE2FD
S113077090E00E94740083ED91E00E94BF0505C0E3
S113078062E08BE290E00E94670081E080930201C6
S113079009C180ED0E94FC04811102C00E94190568
S11307A081ED0E94FC04811186C060E00E94020178
S11307B085E691E00E9414010E942305982F9F7002
S11307C082958F70877080930E024AE0BE016D5F40
S11307D07F4F892F90E00E94600860E087E00E94CC
S11307E00201CE0103960E94140180910E024AE098
S11307F0BE016D5F7F4F90E00E94600860E086E07C
S11308000E940201CE0103960E9414010E94230556
S1130810982F9F7082958F70877080930D024AE0A5
S1130820BE016D5F7F4F892F90E00E94600860E0F9
S113083084E00E940201CE0103960E94140180917B
S11308400D024AE0BE016D5F7F4F90E00E94600898
S113085060E083E00E940201CE0103960E9414012D
S11308600E942305982F9F7082958F7083708093C8
S11308700C024AE0BE016D5F7F4F892F90E00E9419
S1130880600860E081E00E940201CE0103960E94AC
S1130890140180910C024AE0BE016D5F7F4F90E02D
S11308A00E94600860E080E00E940201CE0103968D
S11308B00E94140104C08EED91E00E94BF05809156
S11308C0000190910101892B21F487E080930201BA
S11308D069C081E08093020165C00E944402909344
S11308E0100280930F028536910530F084E690E083
S11308F09093100280930F024AE0BE01655F7F4F20
S113090080910F02909110020E94600880910F0262
S113091090911002909364018093630182EF91E0BF
S11309200E94BF05CE010B960E94BF058BE791E0A4
S11309300E94BF0561E08BE00E9402018DEC91E012
S11309400E94140161E08BE00E940201CE010B962B
S11309500E94140161E08EE00E94020181ED91E0A9
S11309600E94140188E0809302011CC080916301FD
S113097090916401CC9750F462E085E290E00E948B
S1130980740080E092E00E94BF0505C062E085E249
S113099090E00E94670083E08093020103C081E03D
S11309A0809302012D960FB6F894DEBF0FBECDBF23
S11309B0DF91CF91FF91EF91BF91AF919F918F9173
S11309C07F916F915F914F913F912F911F910F9163
S11309D00F900FBE0F901F90189587B18F7C87B929
S11309E088B1806388B9E9EBF0E080818C7F8083F3
S11309F088E98093B800089594EA9093BC0090919C
S1130A00BC009923E4F78093BB0084E88093BC0086
S1130A108091BC008823E4F78091B900887F8831F5
S1130A2021F0803421F480E0089580E0089581E08D
S1130A3008958093BB0084E88093BC008091BC003F
S1130A408823E4F7089584EC8093BC008091BC0073
S1130A508823E4F78091BB00089584E88093BC0068
S1130A608091BC008823E4F78091BB0008951F9215
S1130A700F920FB60F9211242F938F939F93EF939E
S1130A80FF938091C0002091C6008C71E091160202
S1130A90EF5FEF7190911502E91739F0E0931602B8
S1130AA0F0E0E75EFD4F208301C082E090911402E4
S1130AB0892B80931402FF91EF919F918F912F9135
S1130AC00F900FBE0F901F9018951F920F920FB6A4
S1130AD00F9211248F939F93EF93FF939091180299
S1130AE080911702981769F0E0911702EF5FEF7198
S1130AF0E0931702F0E0E75CFD4F80818093C6002D
S1130B0005C0E1ECF0E080818F7D8083FF91EF915F
S1130B109F918F910F900FBE0F901F901895109278
S1130B201802109217021092160210921502282F22
S1130B30392F33231CF422E02093C0009078909343
S1130B40C5008093C40088E98093C10086E0809347
S1130B50C2000895209118022F5F2F7190911702FF
S1130B602917E1F3E22FF0E0E75CFD4F8083209347
S1130B701802E1ECF0E08081806280830895CF93D5
S1130B80DF93EC0103C021960E94AA05888181119C
S1130B90FACFDF91CF9108955058BB27AA270E941E
S1130BA0E4050C942E070E94200738F00E942707C2
S1130BB020F039F49F3F19F426F40C941D070EF429
S1130BC0E095E7FB0C941707E92F0E943F0758F3C1
S1130BD0BA17620773078407950720F079F4A6F51E
S1130BE00C9461070EF4E0950B2EBA2FA02D0B0187
S1130BF0B90190010C01CA01A0011124FF27591B5E
S1130C0099F0593F50F4503E68F11A16F040A22F63
S1130C10232F342F4427585FF3CF469537952795D4
S1130C20A795F0405395C9F77EF41F16BA0B620BD3
S1130C30730B840BBAF09150A1F0FF0FBB1F661F1A
S1130C40771F881FC2F70EC0BA0F621F731F841F5D
S1130C5048F4879577956795B795F7959E3F08F083
S1130C60B0CF9395880F08F09927EE0F9795879545
S1130C7008950E944D060C942E070E94270758F0F1
S1130C800E94200740F029F45F3F29F00C941707D5
S1130C9051110C9462070C941D070E943F0768F3DE
S1130CA09923B1F3552391F3951B550BBB27AA2721
S1130CB062177307840738F09F5F5F4F220F331F5B
S1130CC0441FAA1FA9F335D00E2E3AF0E0E832D023
S1130CD091505040E695001CCAF72BD0FE2F29D026
S1130CE0660F771F881FBB1F261737074807AB07F8
S1130CF0B0E809F0BB0B802DBF01FF2793585F4F6D
S1130D003AF09E3F510578F00C9417070C94620753
S1130D105F3FE4F3983ED4F3869577956795B7954E
S1130D20F7959F5FC9F7880F911D9695879597F959
S1130D300895E1E0660F771F881FBB1F62177307D2
S1130D408407BA0720F0621B730B840BBA0BEE1FE7
S1130D5088F7E09508950E94470788F09F5798F018
S1130D60B92F9927B751B0F0E1F0660F771F881FAC
S1130D70991F1AF0BA95C9F714C0B13091F00E94C6
S1130D806107B1E008950C946107672F782F8827D5
S1130D90B85F39F0B93FCCF3869577956795B395ED
S1130DA0D9F73EF490958095709561957F4F8F4F5C
S1130DB09F4F0895E89409C097FB3EF49095809561
S1130DC0709561957F4F8F4F9F4F9923A9F0F92F0D
S1130DD096E9BB279395F695879577956795B7958B
S1130DE0F111F8CFFAF4BB0F11F460FF1BC06F5F71
S1130DF07F4F8F4F9F4F16C0882311F096E911C083
S1130E00772321F09EE8872F762F05C0662371F0A3
S1130E1096E8862F70E060E02AF09A95660F771FB7
S1130E20881FDAF7880F9695879597F9089597F9AB
S1130E309F6780E870E060E008959FEF80EC08957C
S1130E4000240A94161617061806090608950024A5
S1130E500A9412161306140605060895092E03941F
S1130E60000C11F4882352F0BB0F40F4BF2B11F493
S1130E7060FF04C06F5F7F4F8F4F9F4F089557FDF2
S1130E809058440F551F59F05F3F71F04795880FF4
S1130E9097FB991F61F09F3F79F08795089512168B
S1130EA013061406551FF2CF4695F1DF08C0161637
S1130EB017061806991FF1CF8695710561050894E8
S1130EC00895E894BB2766277727CB0197F90895FF
S1130ED00E947B070C942E070E94200738F00E9482
S1130EE0270720F0952311F00C9417070C941D0785
S1130EF011240C9462070E943F0770F3959FC1F37D
S1130F00950F50E0551F629FF001729FBB27F00DB3
S1130F10B11D639FAA27F00DB11DAA1F649F662708
S1130F20B00DA11D661F829F2227B00DA11D621F57
S1130F30739FB00DA11D621F839FA00D611D221F11
S1130F40749F3327A00D611D231F849F600D211DF5
S1130F50822F762F6A2F11249F5750409AF0F1F078
S1130F6088234AF0EE0FFF1FBB1F661F771F881FE1
S1130F7091505040A9F79E3F510580F00C941707FB
S1130F800C9462075F3FE4F3983ED4F3869577951B
S1130F906795B795F795E7959F5FC1F7FE2B880F87
S1130FA0911D9695879597F908950E944707E8F053
S1130FB09E37E8F09639B8F49E3848F4672F782FB6
S1130FC08827985FF9CF8695779567959395953996
S1130FD0D0F3B62FB1706B0F711D811D20F487956E
S1130FE07795679593950C94F9070C9414080C94D1
S1130FF06207882371F4772321F09850872B762F8A
S113100007C0662311F499270DC09051862B70E018
S113101060E02AF09A95660F771F881FDAF7880F29
S11310209695879597F908959F3F31F0915020F454
S1131030879577956795B795880F911D96958795B0
S113104097F90895EE0FFF1F0590F491E02D099490
S1131050A29FB001B39FC001A39F700D811D1124F5
S1131060911DB29F700D811D1124911D0895FC01E5
S113107088279927E89421912032E9F3293010F048
S11310802E30C8F32B3241F02D3239F4689404C069
S11310900E946B08820F911D219120532A30C0F3C6
S11310A01EF4909581959F4F0895FB01DC010D90EE
S11310B00020E9F7119701900D920020E1F70895BF
S11310C0BB274A3031F4992322F4BDE290958195EF
S11310D09F4F0C9474087AE0979F902D879F802DE2
S11310E0910D11240895BB27FB015527AA27880FCA
S11310F0991FAA1FA41710F0A41B83955051B9F788
S1131100A05DAA3308F0A95DA193009779F7B11106
S1131110B1931192CB010C948D08DC01FC01672F73
S113112071917723E1F7329704C07C916D937083BA
S11111306291AE17BF07C8F30895F894FFCF7D
S113113EC7010100000000040000000E0000001FA3
S113114E0000001F0000001F0000000E0000000041
S113115E000000040000000A0000000E0000000E53
S113116E0000000E000000150000001F0000000E1D
S113117E0000000E00000011000000110000001518
S113118E000000150000000E0000000E0000000418
S113119E000000900130303A30303A303000554182
S11311AE525420456E61626C65642E0D0A004765CB
S11311BE7474696E672076616C7565732E0D0A0002
S11311CE54656D706572617475726520756E6176A5
S11311DE61696C61626C652E0D0A0056656E7469E8
S11311EE6C6174696F6E204F4E0D0A004D6F6973FA
S11311FE747572652076616C75653A200020202026
S113120E0025005761746572204F4E0D0A00446527
S113121E76696365206E6F7420666F756E642E0D2D
S113122E0A004C696768742076616C75653A200013
S10F123E4C69676874204F4E0D0A0000D4
S9030000FC
