:100000000C9452000C946F000C946F000C946F00D1
:100010000C946F000C946F000C946F000C946F00A4
:100020000C946F000C94E0010C946F000C946F0022
:100030000C946F000C946F000C946F000C946F0084
:100040000C94F5010C946F000C944F030C947D03F9
:100050000C946F000C94A7020C946F000C946F002A
:100060000C946F000C946F004E414E494E49545908
:10007000494E46CDCCCC3D0AD7233C17B7D1387773
:10008000CC2B329595E6241FB14F0A000020410089
:1000900000C84200401C4620BCBE4CCA1B0E5AAED3
:1000A000C59D740011241FBECFEFD8E0DEBFCDBFC9
:1000B00011E0A0E0B1E0E2E2FEE002C005900D92A6
:1000C000AE3FB107D9F722E0AEEFB1E001C01D921B
:1000D000AA34B207E1F70E946A010C940F070C944E
:1000E000000085B1826085B985E08A95F1F700004E
:1000F00085B18D7F85B90895CF93C82F662321F0F0
:1001000085B1816085B903C085B18E7F85B98AB11B
:1001100080618AB98AB180628AB98AB180648AB9F9
:100120008AB180688AB98BB18F778BB98BB18F7B9D
:100130008BB98BB18F7D8BB98BB18F7E8BB9CC2373
:100140001CF48BB180688BB9C6FF03C08BB180648F
:100150008BB9C5FF03C08BB180628BB9C4FF03C0EC
:100160008BB180618BB90E9471008BB18F778BB995
:100170008BB18F7B8BB98BB18F7D8BB98BB18F7E20
:100180008BB9C3FF03C08BB180688BB9C2FF03C0BA
:100190008BB180648BB9C1FF03C08BB180628BB916
:1001A000C0FF03C08BB180618BB90E9471008BB11D
:1001B00080618BB98BB180628BB98BB180648BB954
:1001C0008BB180688BB987EB9BE00197F1F700C09A
:1001D0000000CF91089560E00E947C00089561E0E6
:1001E0000E947C000895611104C080580E94EB00B9
:1001F000089580540E94EB00089581E00E94EB0076
:10020000089561E00E947C000895CF93DF93FC0184
:1002100003C00E940101FE01EF012196808181113E
:10022000F8CFDF91CF910895CF93C82F84B181602B
:1002300084B98AB180628AB984B1826084B98AB192
:1002400080618AB98AB180628AB98AB180648AB9C8
:100250008AB180688AB98FEF99EF0197F1F700C0F2
:1002600000008BB180628BB98BB180618BB90E9429
:1002700071008FE19EE40197F1F700C000000E9439
:1002800071008FEF90E00197F1F700C000000E942D
:1002900071008FEF90E00197F1F700C000008BB183
:1002A0008F7E8BB90E9471008FEF90E00197F1F77C
:1002B00000C0000088E20E94EB0088E00E94EB0092
:1002C0000E94FD0086E00E94EB008C2F0E94EB0054
:1002D000CF9108958CE00E94140180E40E94EB000D
:1002E000C0E00AC0EC2FF0E0EE0FFF1FE050FF4F20
:1002F00080810E94EF00CF5FC031A0F380E80E94B0
:10030000EB0060E080E00E94F30080E291E00E9458
:10031000050160E08AE00E94F30081E00E94010193
:1003200089E291E00E94050161E080E00E94F30013
:1003300080E00E94010161E08AE00E94F30088E70A
:100340000E940101ECE7F0E080818064808380817D
:100350008F77808380818E7F808380818D7F808373
:1003600080818B7F80838081877F8083EAE7F0E0D4
:1003700080818068808380818860808380818160C3
:100380008083808182608083808184608083E1EBD0
:10039000F0E080818D7F8083808185608083E0E7CD
:1003A000F0E080818160808385B58D7F85BD85B5D6
:1003B000856085BDEEE6F0E0808181608083FFCFBF
:1003C0001F920F920FB60F9211248F938091020209
:1003D0008F5F809302028F3110F0109202028F9192
:1003E0000F900FBE0F901F9018951F920F920FB68F
:1003F0000F9211240F931F932F933F934F935F936B
:100400006F937F938F939F93AF93BF93CF93DF931C
:10041000EF93FF93809101028F5F809301028430FC
:1004200008F480C01092010280910002813049F0EE
:1004300020F0833009F46AC073C081E08093000229
:1004400071C088EB0E941403811107C08DE291E016
:100450000E94BC0382E00E94310389EB0E941403D6
:10046000811148C080E591E00E94BC030E943B03DB
:100470008093FF010EE711E011274AE0B80190E0F8
:100480000E941404C091FF010E9445038093FF0164
:100490004AE0B80190E00E9414048091FF01C80F67
:1004A0008FE791E00E94BC03D0E0CE010E94BC0324
:1004B0008CE791E00E94BC0360E08BE00E94F300B7
:1004C000CE010E94050160E08FE00E94F3008AE205
:1004D00091E00E940501CE010E94F6038093FF0186
:1004E0008A3120F082E0809300021CC083E0809378
:1004F000000218C08DE891E00E94BC0388EA91E0F8
:100500000E94BC0383E0809300020CC08EEC91E05B
:100510000E94BC03EAE7F0E080818064808302C02F
:1005200010920002FF91EF91DF91CF91BF91AF91B7
:100530009F918F917F916F915F914F913F912F91FB
:100540001F910F910F900FBE0F901F9018951F9243
:100550000F920FB60F9211242F933F934F935F93F7
:100560006F937F938F939F93AF93BF93EF93FF937B
:10057000CF93DF9300D01F92CDB7DEB71A821982D6
:100580001B8280917800909179004AE0BE016F5FF4
:100590007F4F90E00E94140488EE91E00E94BC031B
:1005A000CE0101960E94BC038CE791E00E94BC033F
:1005B000CE0101960E94F2031092FE014AE0BE01B4
:1005C0006F5F7F4F80E090E00E94140461E081E063
:1005D0000E94F30088EF91E00E94050161E081E054
:1005E0000E94F300CE0101960E94050161E084E0C3
:1005F0000E94F3008CEF91E00E9405010F900F9094
:100600000F90DF91CF91FF91EF91BF91AF919F91AB
:100610008F917F916F915F914F913F912F910F90AB
:100620000FBE0F901F90189594EA9093BC00909184
:10063000BC009923E4F78093BB0084E88093BC005E
:100640008091BC008823E4F78091B900887F8831CD
:1006500021F0803421F480E0089580E0089581E065
:1006600008958093BB0084E88093BC008091BC0017
:100670008823E4F7089584EC8093BC008091BC004B
:100680008823E4F78091BB00089584E88093BC0040
:100690008091BC008823E4F78091BB0008951F92ED
:1006A0000F920FB60F9211242F938F939F93EF9376
:1006B000FF938091C0002091C6008C71E0910502EB
:1006C000EF5FEF7190910402E91739F0E0930502B2
:1006D000F0E0E85FFD4F208301C082E090910302CB
:1006E000892B80930302FF91EF919F918F912F911E
:1006F0000F900FBE0F901F9018951F920F920FB67C
:100700000F9211248F939F93EF93FF939091070281
:1007100080910602981769F0E0910602EF5FEF7191
:10072000E0930602F0E0E85DFD4F80818093C60013
:1007300005C0E1ECF0E080818F7D8083FF91EF9137
:100740009F918F910F900FBE0F901F901895209141
:1007500007022F5F2F71909106022917E1F3E22F14
:10076000F0E0E85DFD4F808320930702E1ECF0E0CC
:100770008081806280830895CF93DF93EC0103C072
:1007800021960E94A70388818111FACFDF91CF9132
:10079000089557FD9058440F551F59F05F3F71F071
:1007A0004795880F97FB991F61F09F3F79F08795D8
:1007B0000895121613061406551FF2CF4695F1DF61
:1007C00008C0161617061806991FF1CF86957105F1
:1007D000610508940895E894BB2766277727CB0125
:1007E00097F90895662777270C944104FC01882720
:1007F0009927E89421912032E9F3293010F02E3026
:10080000C8F32B3241F02D3239F4689404C00E94B1
:100810001F04820F911D219120532A30C0F31EF432
:10082000909581959F4F0895BB274A3031F49923C5
:1008300022F4BDE2909581959F4F0C9428047AE0B4
:10084000979F902D879F802D910D11240895BB2790
:10085000FB015527AA27880F991FAA1FA41710F07C
:10086000A41B83955051B9F7A05DAA3308F0A95D88
:10087000A193009779F7B111B1931192CB010C9428
:10088000B005A0E0B0E0E7E4F4E00C94CF06EC01A2
:100890006B016115710519F0FB01918380837E0165
:1008A000FFEFEF1AFF0A0881802F90E00E948F056A
:1008B000892B11F0E701F3CF0D3239F47E0182E08C
:1008C000E80EF11C098111E008C00B3229F47E0109
:1008D00092E0E90EF11C098110E0E701219743E065
:1008E00050E060E770E0CE010E949805892BC1F4CA
:1008F000239645E050E06BE670E0CE010E9498053B
:10090000892B09F42596C114D10419F0F601D1837D
:10091000C0831111F6C060E070E080E89FE7FAC084
:1009200043E050E068E670E0CE010E949805892B14
:1009300059F4C114D10409F4E9C0F2E0EF0EF11C3E
:10094000F601F182E082E2C020E030E0A901C0E0DF
:10095000D0E0F70180EDA82EA00E89E08A1530F1D5
:10096000912F9260B92E812F887012FF04C08111DF
:1009700024C0219622C081112197A5E0B0E00E94F9
:10098000BE06DC01CB01880F991FAA1FBB1F9C016B
:10099000AD012A0D311D411D511D283989E9380746
:1009A000480789E1580748F0166006C09EEFA91273
:1009B0000AC013FD40C01860B12E8FEFE81AF80A84
:1009C00000811B2DC6CF802F8F7D8534A1F58081BE
:1009D0008D3211F4106106C08B3221F0319661E046
:1009E00070E004C08181329662E070E080538A300A
:1009F00018F0E61BF70B1FC060E070E060389CE069
:100A000079075CF4DB01AA0FBB1FAA0FBB1F6A0F9B
:100A10007B1F660F771F680F711D3196DF011197DD
:100A20008C9180538A3050F314FF03C07195619507
:100A30007109C60FD71F11FF08C0C114D10429F0D6
:100A4000CF010197F60191838083CA01B9010E9409
:100A5000C505212F2370233019F04B015C0106C01E
:100A60004B015C01B7FAB094B7F8B09420E030E0E5
:100A7000A901C501B4010E94C005882309F43EC044
:100A8000D7FF06C0D195C195D10907E810E002C093
:100A90000FE910E06801F8E1CF1AD10890E2E92EE1
:100AA000F12CCE15DF0574F0F801259135914591B3
:100AB0005491C501B4010E9426064B015C01CE1978
:100AC000DF09EFCF04501109F594E7940C151D05CB
:100AD00041F78A2D880F8B2D881F8F3F49F020E02A
:100AE00030E0A901C501B4010E94C005811106C012
:100AF00082E290E09093490280934802C501B401DC
:100B000009C060E070E080E89FEF04C060E070E042
:100B100080EC9FE7CDB7DEB7ECE00C94EB069111CB
:100B20000C949306803219F089508550C8F70895C7
:100B3000FB01DC014150504088F08D9181341CF064
:100B40008B350CF4805E659161341CF06B350CF4D0
:100B5000605E861B611171F3990B0895881BFCCFB1
:100B6000DC01FC01672F71917723E1F7329704C014
:100B70007C916D9370836291AE17BF07C8F308959F
:100B80000E94020608F481E00895E89409C097FBEA
:100B90003EF490958095709561957F4F8F4F9F4F54
:100BA0009923A9F0F92F96E9BB279395F695879598
:100BB00077956795B795F111F8CFFAF4BB0F11F45B
:100BC00060FF1BC06F5F7F4F8F4F9F4F16C0882302
:100BD00011F096E911C0772321F09EE8872F762F38
:100BE00005C0662371F096E8862F70E060E02AF079
:100BF0009A95660F771F881FDAF7880F9695879565
:100C000097F90895990F0008550FAA0BE0E8FEEF39
:100C100016161706E807F907C0F012161306E407C0
:100C2000F50798F0621B730B840B950B39F40A26B9
:100C300061F0232B242B252B21F408950A2609F497
:100C4000A140A6958FEF811D811D08950E94390650
:100C50000C94AD060E949F0638F00E94A60620F074
:100C6000952311F00C9496060C949C0611240C9478
:100C7000EC030E94C90370F3959FC1F3950F50E0F8
:100C8000551F629FF001729FBB27F00DB11D639F3E
:100C9000AA27F00DB11DAA1F649F6627B00DA11DE4
:100CA000661F829F2227B00DA11D621F739FB00D8A
:100CB000A11D621F839FA00D611D221F749F3327FA
:100CC000A00D611D231F849F600D211D822F762F93
:100CD0006A2F11249F5750409AF0F1F088234AF070
:100CE000EE0FFF1FBB1F661F771F881F91505040DC
:100CF000A9F79E3F510580F00C9496060C94EC03E6
:100D00005F3FE4F3983ED4F3869577956795B79562
:100D1000F795E7959F5FC1F7FE2B880F911D96957C
:100D2000879597F9089599278827089597F99F67D8
:100D300080E870E060E008959FEF80EC0895002463
:100D40000A941616170618060906089500240A9430
:100D500012161306140605060895092E0394000CB6
:100D600011F4882352F0BB0F40F4BF2B11F460FF45
:100D700004C06F5F7F4F8F4F9F4F08950E94000701
:100D8000A59F900DB49F900DA49F800D911D1124DF
:100D900008952F923F924F925F926F927F928F921F
:100DA0009F92AF92BF92CF92DF92EF92FF920F93FA
:100DB0001F93CF93DF93CDB7DEB7CA1BDB0B0FB604
:100DC000F894DEBF0FBECDBF09942A8839884888C1
:100DD0005F846E847D848C849B84AA84B984C88457
:100DE000DF80EE80FD800C811B81AA81B981CE0F4E
:100DF000D11D0FB6F894DEBF0FBECDBFED01089533
:100E0000A29FB001B39FC001A39F700D811D11244B
:100E1000911DB29F700D811D1124911D0895F894AC
:020E2000FFCF02
:100E2200000040004802672B672B672B4802000036
:100E3200400008024802480248027527672B480210
:100E420030303A30303A30300030B0430044485409
:100E5200313220697320726573706F6E64696E67D8
:100E620020666F722077726974696E672E0D0A00B0
:100E7200444854313220697320726573706F6E6416
:100E8200696E6720666F722072656164696E6720A1
:100E920074656D70657261747572652E0D0A005409
:100EA200656D70657261747572653A2000444854CC
:100EB2003132206973206E6F7420726573706F6EA9
:100EC20064696E672E0D0A004D6F76696E67206F3A
:100ED2006E746F20636865636B696E6720736F69F8
:100EE2006C206D6F6973747572652E0D0A0043680C
:100EF20065636B696E6720736F696C206D6F6973D0
:100F0200747572652E0D0A00414443207261772088
:0E0F120076616C75653A2000202020002500D5
:00000001FF
