:100000000C943C000C9459000C9459000C94590029
:100010000C9459000C9459000C9459000C945900FC
:100020000C9459000C9459000C9459000C945900EC
:100030000C9459000C9468020C9459000C945900CB
:100040000C9459000C9459000C9405050C9433053C
:100050000C9459000C9459000C9459000C945900BC
:100060000C9459000C945900A002D80220033303C9
:100070009103A7034B04880411241FBECFEFD8E0DF
:10008000DEBFCDBF11E0A0E0B1E0ECE1FFE002C0D7
:1000900005900D92A83CB107D9F722E0A8ECB1E099
:1000A00001C01D92A531B207E1F70E9479010C94BD
:1000B0008C070C940000FC01408121E030E002C07C
:1000C000220F331F6A95E2F7242B20830895FC0149
:1000D000908121E030E002C0220F331F6A95E2F7E1
:1000E0002095292320830895FC01408121E030E000
:1000F00002C0220F331F6A95E2F7242B2083089554
:1001000085B1826085B985E08A95F1F7000085B1F7
:100110008D7F85B90895CF93C82F662321F085B1CF
:10012000816085B903C085B18E7F85B98AB1806150
:100130008AB98AB180628AB98AB180648AB98AB17F
:1001400080688AB98BB18F778BB98BB18F7B8BB974
:100150008BB18F7D8BB98BB18F7E8BB9CC231CF487
:100160008BB180688BB9C6FF03C08BB180648BB93B
:10017000C5FF03C08BB180628BB9C4FF03C08BB1D4
:1001800080618BB90E9480008BB18F778BB98BB166
:100190008F7B8BB98BB18F7D8BB98BB18F7E8BB9F8
:1001A000C3FF03C08BB180688BB9C2FF03C08BB1A2
:1001B00080648BB9C1FF03C08BB180628BB9C0FF73
:1001C00003C08BB180618BB90E9480008BB18061CC
:1001D0008BB98BB180628BB98BB180648BB98BB1D9
:1001E00080688BB987EB9BE00197F1F700C00000B6
:1001F000CF91089560E00E948B00089561E00E9415
:100200008B000895611104C080580E94FA0008957F
:1002100080540E94FA00089581E00E94FA00089537
:1002200061E00E948B000895CF93DF93FC0103C02F
:100230000E941001FE01EF01219680818111F8CF0B
:10024000DF91CF910895CF93C82F84B1816084B995
:100250008AB180628AB984B1826084B98AB18061CE
:100260008AB98AB180628AB98AB180648AB98AB14E
:1002700080688AB98FEF99EF0197F1F700C000000D
:100280008BB180628BB98BB180618BB90E94800089
:100290008FE19EE40197F1F700C000000E9480000A
:1002A0008FEF90E00197F1F700C000000E948000FE
:1002B0008FEF90E00197F1F700C000008BB18F7EC7
:1002C0008BB90E9480008FEF90E00197F1F700C09A
:1002D000000088E20E94FA0088E00E94FA000E9472
:1002E0000C0186E00E94FA008C2F0E94FA00CF9148
:1002F000089563E08AE290E00E945B0062E08AE297
:1003000090E00E945B0062E084E290E00E945B006B
:1003100063E08BE290E00E94670062E08BE290E095
:100320000E94670062E085E290E00E9467008CE036
:100330000E9423010E94BB0480ED0E94CA04811127
:100340001AC00E94E70480E00E94E70485E40E944E
:10035000E70482E00E94E70480E00E94E70480E076
:100360000E94E70480E00E94E70480E00E94E70426
:1003700080E00E94E70480E40E94FA00C0E00CC024
:10038000EC2FF0E0EE0FFF1FEE0FFF1FED5FFE4FB3
:1003900080810E94FE00CF5FC83190F380E80E9408
:1003A000FA0060E080E00E94020185E691E00E9490
:1003B000140160E08AE00E94020181E00E941001C5
:1003C00080E30E9410018FED0E94100183E40E94DF
:1003D000100161E080E00E94020180E00E941001B3
:1003E00061E08AE00E94020182E00E94100161E067
:1003F0008EE00E940201EAE7F0E08081806880835D
:10040000808181608083808182608083808184603C
:10041000808387E690E00E945D058EE691E00E9471
:100420008D05E1E8F0E080818A7F808380818260B1
:100430008083EFE6F0E08081816080837894FFCF55
:10044000ECE7F0E080818064808380818F77808317
:1004500080818E7F808380818D7F808380818B7F70
:1004600080838081877F808380818083EAE7F0E0DA
:1004700080818064808380917A0086FDFCCF8091AA
:100480007800909179000895ECE7F0E08081806435
:10049000808380818F778083808181608083808169
:1004A0008D7F808380818B7F80838081877F808325
:1004B00080818083EAE7F0E080818064808380919E
:1004C0007A0086FDFCCF80917800909179000895A4
:1004D0001F920F920FB60F9211240F931F932F9319
:1004E0003F934F935F936F937F938F939F93AF93BC
:1004F000BF93EF93FF93CF93DF93CDB7DEB72D97E5
:10050000DEBFCDBF19821A8280E290E09C838B838C
:10051000FE01359686E0DF011D928A95E9F71C867B
:100520001B861D86E09102018E2F90E0FC01319721
:10053000E830F10508F001C2EC5CFF4F0C941107A4
:100540004091000150910101473CB1E05B0760F030
:10055000109201011092000182E0809302018EE767
:1005600091E00E948D05ECC19A01ABEABAEA0E94C3
:10057000170796958795969587959C01220F331FAF
:10058000820F931F880F991F4817590751F44F5F27
:100590005F4F509301014093000186E08093020178
:1005A000CFC14F5F5F4F5093010140930001C8C11D
:1005B00088EB0E94CA04811103C082E00E94E70414
:1005C00089EB0E94CA04811133C00E94F104809318
:1005D000CD014AE08E010F5F1F4FB80190E00E94ED
:1005E0004F070E94FB048093CD014AE0BE016E5F7D
:1005F0007F4F90E00E944F07F80101900020E9F73B
:1006000031978EE290E091838083BE016E5F7F4FD1
:10061000C8010E94440760E08BE00E940201C8010B
:100620000E941401C8010E9426078093CD0104C0D6
:1006300083E991E00E948D0584E08093020180C1EE
:100640008091CD018A3130F063E08BE290E00E942E
:10065000740005C063E08BE290E00E94670085E0D3
:10066000809302016DC10E9420029093CC0180937F
:10067000CB01893923E0920738F088E993E0909321
:10068000CC018093CB0109C0883F924030F488EFC1
:1006900092E09093CC018093CB016091CB0170915B
:1006A000CC01685F724080E090E00E94C90520E0C4
:1006B00030E040E25FE30E942F060E949C060E9409
:1006C0009A05DC01CB019093CC018093CB014AE0E9
:1006D000BE01655F7F4F0E944F078091CB019091D3
:1006E000CC019093CF018093CE0161E081E00E9424
:1006F00002018EEA91E00E94140161E081E00E9413
:100700000201CE010B960E94140161E084E00E9478
:10071000020182EB91E00E94140186E080930201C5
:100720000FC18091CE019091CF018135910530F0BC
:1007300062E08BE290E00E94740005C062E08BE210
:1007400090E00E94670081E080930201F9C080ED93
:100750000E94CA04811102C00E94E70481ED0E9438
:10076000CA04811186C060E00E94020185E691E022
:100770000E9414010E94F104982F9F7082958F703F
:1007800087708093CA014AE0BE016D5F7F4F892F59
:1007900090E00E944F0760E087E00E940201CE01D6
:1007A00003960E9414018091CA014AE0BE016D5F68
:1007B0007F4F90E00E944F0760E086E00E940201B8
:1007C000CE0103960E9414010E94F104982F9F709D
:1007D00082958F7087708093C9014AE0BE016D5F7A
:1007E0007F4F892F90E00E944F0760E084E00E94D5
:1007F0000201CE0103960E9414018091C9014AE0D2
:10080000BE016D5F7F4F90E00E944F0760E083E084
:100810000E940201CE0103960E9414010E94F1047D
:10082000982F9F7082958F7083708093C8014AE0E3
:10083000BE016D5F7F4F892F90E00E944F0760E0FF
:1008400081E00E940201CE0103960E941401809172
:10085000C8014AE0BE016D5F7F4F90E00E944F07E4
:1008600060E080E00E940201CE0103960E94140124
:1008700004C084EB91E00E948D058091000190916D
:100880000101892B21F487E08093020159C081E0A6
:100890008093020155C00E9444029093CC01809342
:1008A000CB018536910530F084E690E09093CC0141
:1008B0008093CB014AE0BE01655F7F4F8091CB0101
:1008C0009091CC010E944F078091CB019091CC0177
:1008D000909364018093630161E08BE00E940201C8
:1008E0008EEA91E00E94140161E08BE00E94020117
:1008F000CE010B960E94140161E08EE00E9402017D
:1009000082EB91E00E94140188E08093020118C0FC
:100910008091630190916401CC9730F462E085E2AC
:1009200090E00E94740005C062E085E290E00E94C1
:10093000670083E08093020103C081E0809302019D
:100940002D960FB6F894DEBF0FBECDBFDF91CF91CD
:10095000FF91EF91BF91AF919F918F917F916F9197
:100960005F914F913F912F911F910F910F900FBE6B
:100970000F901F90189587B18F7C87B988B18063DD
:1009800088B9E9EBF0E080818C7F808388E98093EF
:10099000B800089594EA9093BC009091BC0099230C
:1009A000E4F78093BB0084E88093BC008091BC0096
:1009B0008823E4F78091B900887F883121F0803462
:1009C00021F480E0089580E0089581E00895809307
:1009D000BB0084E88093BC008091BC008823E4F7CE
:1009E000089584EC8093BC008091BC008823E4F7D8
:1009F0008091BB00089584E88093BC008091BC0086
:100A00008823E4F78091BB0008951F920F920FB6E0
:100A10000F9211242F938F939F93EF93FF938091C5
:100A2000C0002091C6008C71E091D201EF5FEF71A0
:100A30009091D101E91739F0E093D201F0E0EB5247
:100A4000FE4F208301C082E09091D001892B8093DA
:100A5000D001FF91EF919F918F912F910F900FBE39
:100A60000F901F9018951F920F920FB60F9211249E
:100A70008F939F93EF93FF939091D4018091D30133
:100A8000981769F0E091D301EF5FEF71E093D30124
:100A9000F0E0EB50FE4F80818093C60005C0E1EC92
:100AA000F0E080818F7D8083FF91EF919F918F9106
:100AB0000F900FBE0F901F9018951092D4011092B6
:100AC000D3011092D2011092D101282F392F332354
:100AD0001CF422E02093C00090789093C50080938E
:100AE000C40088E98093C10086E08093C200089525
:100AF0002091D4012F5F2F719091D3012917E1F339
:100B0000E22FF0E0EB50FE4F80832093D401E1EC24
:100B1000F0E08081806280830895CF93DF93EC01C1
:100B200003C021960E94780588818111FACFDF9158
:100B3000CF9108950E940E0688F09F5798F0B92F24
:100B40009927B751B0F0E1F0660F771F881F991F02
:100B50001AF0BA95C9F714C0B13091F00E94280676
:100B6000B1E008950C942806672F782F8827B85F86
:100B700039F0B93FCCF3869577956795B395D9F75A
:100B80003EF490958095709561957F4F8F4F9F4F64
:100B90000895E89409C097FB3EF490958095709570
:100BA00061957F4F8F4F9F4F9923A9F0F92F96E9B9
:100BB000BB279395F695879577956795B795F1112E
:100BC000F8CFFAF4BB0F11F460FF1BC06F5F7F4FCB
:100BD0008F4F9F4F16C0882311F096E911C07723DD
:100BE00021F09EE8872F762F05C0662371F096E8E6
:100BF000862F70E060E02AF09A95660F771F881FB5
:100C0000DAF7880F9695879597F9089557FD9058CC
:100C1000440F551F59F05F3F71F04795880F97FBC0
:100C2000991F61F09F3F79F087950895121613067A
:100C30001406551FF2CF4695F1DF08C016161706A9
:100C40001806991FF1CF86957105610508940895DE
:100C5000E894BB2766277727CB0197F908950E9470
:100C600042060C9400070E94F20638F00E94F90632
:100C700020F0952311F00C94C0060C94EF0611247B
:100C80000C9429060E94060670F3959FC1F3950FF8
:100C900050E0551F629FF001729FBB27F00DB11D00
:100CA000639FAA27F00DB11DAA1F649F6627B00D90
:100CB000A11D661F829F2227B00DA11D621F739F79
:100CC000B00DA11D621F839FA00D611D221F749F87
:100CD0003327A00D611D231F849F600D211D822FCE
:100CE000762F6A2F11249F5750409AF0F1F08823F5
:100CF0004AF0EE0FFF1FBB1F661F771F881F915022
:100D00005040A9F79E3F510580F00C94C0060C940A
:100D100029065F3FE4F3983ED4F38695779567956F
:100D2000B795F795E7959F5FC1F7FE2B880F911D4B
:100D30009695879597F908950E940E06E8F09E37DC
:100D4000E8F09639B8F49E3848F4672F782F882752
:100D5000985FF9CF86957795679593959539D0F3F8
:100D6000B62FB1706B0F711D811D20F4879577959B
:100D7000679593950C94C6060C94E1060C9429068D
:100D800097F99F6780E870E060E00895882371F428
:100D9000772321F09850872B762F07C0662311F414
:100DA00099270DC09051862B70E060E02AF09A954B
:100DB000660F771F881FDAF7880F9695879597F942
:100DC00008959F3F31F0915020F48795779567956E
:100DD000B795880F911D9695879597F908959FEF80
:100DE00080EC089500240A941616170618060906C2
:100DF000089500240A941216130614060506089591
:100E0000092E0394000C11F4882352F0BB0F40F418
:100E1000BF2B11F460FF04C06F5F7F4F8F4F9F4F58
:100E20000895EE0FFF1F0590F491E02D0994A29F05
:100E3000B001B39FC001A39F700D811D1124911DAE
:100E4000B29F700D811D1124911D0895FC0188270A
:100E50009927E89421912032E9F3293010F02E30BF
:100E6000C8F32B3241F02D3239F4689404C00E944B
:100E70005A07820F911D219120532A30C0F31EF48E
:100E8000909581959F4F0895FB01DC010D90002006
:100E9000E9F7119701900D920020E1F70895BB2723
:100EA0004A3031F4992322F4BDE2909581959F4F09
:100EB0000C9463077AE0979F902D879F802D910D6A
:100EC00011240895BB27FB015527AA27880F991FD6
:100ED000AA1FA41710F0A41B83955051B9F7A05D69
:100EE000AA3308F0A95DA193009779F7B111B193E6
:100EF0001192CB010C947C07DC01FC01672F7191EE
:100F00007723E1F7329704C07C916D9370836291EF
:0C0F1000AE17BF07C8F30895F894FFCF98
:100F1C00C7010100000000040000000E0000001FCB
:100F2C000000001F0000001F0000000E0000000069
:100F3C00000000040000000A0000000E0000000E7B
:100F4C000000000E000000150000001F0000000E45
:100F5C000000000E00000011000000110000001540
:100F6C00000000150000000E0000000E0000000440
:100F7C00000000900130303A30303A3030005541AA
:100F8C00525420456E61626C65642E0D0A005B49FB
:100F9C004E464F5D204765742076616C7565732EE7
:100FAC000D0A0054656D70657261747572652075FB
:100FBC006E617661696C61626C652E0D0A00202091
:100FCC0020002500446576696365206E6F74206689
:080FDC006F756E642E0D0A0012
:00000001FF
