S012000052656C61795F546573742E7372656316
S11300000C9434000C9451000C9451000C94510045
S11300100C9451000C9451000C9451000C94510018
S11300200C9451000C9451000C9451000C94510008
S11300300C9451000C94BD000C9451000C9451008C
S11300400C9451000C9451000C9401010C942F0158
S11300500C9451000C9451000C9451000C945100D8
S11300600C9451000C94510011241FBECFEFD8E022
S1130070DEBFCDBF11E0A0E0B1E0E0E3F3E002C0F9
S113008005900D92A234B107D9F721E0A2E4B1E0C2
S113009001C01D92A738B207E1F70E9497000C94A3
S11300A096010C940000FC01408121E030E002C084
S11300B0220F331F6A95E2F7242B20830895FC0155
S11300C0808121E030E002C0220F331F6A95E2F7FD
S11300D0922F9095892380838181282B21830895F1
S11300E0FC01908121E030E002C0220F331F6A95A9
S11300F0E2F72095292320830895FC01408121E023
S113010030E002C0220F331F6A95E2F7242B2083CC
S11301100895FC01808190E002C0959587956A95C9
S1130120E2F780FD02C080E0089581E0089587E64B
S113013090E00E94590160E084E290E00E94530044
S113014060E085E290E00E947D0065E08AE290E054
S11301500E945F0080E091E00E948901E1E8F0E004
S113016080818A7F8083808182608083EFE6F0E0F3
S11301708081816080837894FFCF1F920F920FB6A5
S11301800F9211242F933F934F935F936F937F9319
S11301908F939F93AF93BF93EF93FF9365E089E2AF
S11301A090E00E94890081110EC080E191E00E94DC
S11301B089018DE091E00E94890160E085E290E090
S11301C00E9470000DC089E291E00E9489018DE0D7
S11301D091E00E94890160E085E290E00E947D0048
S11301E0FF91EF91BF91AF919F918F917F916F910B
S11301F05F914F913F912F910F900FBE0F901F90E1
S113020018951F920F920FB60F9211242F938F936C
S11302109F93EF93FF938091C0002091C6008C714F
S1130220E0914401EF5FEF7190914301E91739F0D8
S1130230E0934401F0E0E95BFE4F208301C082E0DB
S113024090914201892B80934201FF91EF919F91FC
S11302508F912F910F900FBE0F901F9018951F92A2
S11302600F920FB60F9211248F939F93EF93FF93E6
S11302709091460180914501981769F0E0914501FC
S1130280EF5FEF71E0934501F0E0E959FE4F8081A3
S11302908093C60005C0E1ECF0E080818F7D80830F
S11302A0FF91EF919F918F910F900FBE0F901F9030
S11302B01895109246011092450110924401109233
S11302C04301282F392F33231CF422E02093C0004C
S11302D090789093C5008093C40088E98093C1000E
S11302E086E08093C2000895209146012F5F2F710C
S11302F0909145012917E1F3E22FF0E0E959FE4F0F
S1130300808320934601E1ECF0E080818062808369
S11303100895CF93DF93EC0103C021960E947401EA
S113032088818111FACFDF91CF910895F894FFCF9E
S113033052454C4159205354415455533A0D0A00E7
S113034052656C61795F313A204F4E3B2052656CA7
S113035061795F323A204F4E0052656C61795F31AA
S11303603A204F4E3B0952656C61795F323A204F17
S10503704E0039
S9030000FC
