S012000043534D5F53656E736F722E7372656356
S11300000C9434000C9451000C9451000C94510045
S11300100C9451000C9451000C9451000C94510018
S11300200C9451000C9451000C9451000C94510008
S11300300C9451000C948F000C9451000C945100BA
S11300400C9451000C9451000C94E6000C9414018F
S11300500C9451000C94A4000C9451000C94510085
S11300600C9451000C94510011241FBECFEFD8E022
S1130070DEBFCDBF11E0A0E0B1E0E4E6F3E002C0F2
S113008005900D92A231B107D9F721E0A2E1B1E0C8
S113009001C01D92A735B207E1F70E9453000C94EA
S11300A0B0010C94000087E690E00E943E01ECE76A
S11300B0F0E080818064808380818F778083808179
S11300C08E7F808380818D7F808380818B7F8083FE
S11300D08081877F8083EAE7F0E080818068808385
S11300E08081886080838081816080838081826058
S11300F0808380818460808380E091E00E946E012F
S1130100E1E8F0E080818A7F80838081826080835F
S1130110EFE6F0E08081816080837894FFCF1F92C6
S11301200F920FB60F9211248F93EF93FF93EAE788
S1130130F0E0808180648083FF91EF918F910F9034
S11301400FBE0F901F9018951F920F920FB60F922B
S113015011242F933F934F935F936F937F938F93C8
S11301609F93AF93BF93EF93FF93CF93DF9300D00D
S11301701F92CDB7DEB71A8219821B828091780054
S1130180909179004AE0BE016F5F7F4F0E947B012E
S1130190CE0101960E946E018EE091E00E946E01F4
S11301A00F900F900F90DF91CF91FF91EF91BF913E
S11301B0AF919F918F917F916F915F914F913F91FB
S11301C02F910F900FBE0F901F9018951F920F92B2
S11301D00FB60F9211242F938F939F93EF93FF9356
S11301E08091C0002091C6008C71E0911401EF5FF2
S11301F0EF7190911301E91739F0E0931401F0E0E5
S1130200E95EFE4F208301C082E090911201892BA8
S113021080931201FF91EF919F918F912F910F90F5
S11302200FBE0F901F9018951F920F920FB60F924A
S113023011248F939F93EF93FF93909116018091D4
S11302401501981769F0E0911501EF5FEF71E093E4
S11302501501F0E0E95CFE4F80818093C60005C083
S1130260E1ECF0E080818F7D8083FF91EF919F919D
S11302708F910F900FBE0F901F901895109216013A
S1130280109215011092140110921301282F392F86
S113029033231CF422E02093C00090789093C5008F
S11302A08093C40088E98093C10086E08093C200F3
S11302B00895209116012F5F2F7190911501291730
S11302C0E1F3E22FF0E0E95CFE4F80832093160116
S11302D0E1ECF0E08081806280830895CF93DF9326
S11302E0EC0103C021960E94590188818111FACF43
S11302F0DF91CF910895BB274A3031F4992322F43A
S1130300BDE2909581959F4F0C948701BB27FB011B
S11303105527AA27880F991FAA1FA41710F0A41BFA
S113032083955051B9F7A05DAA3308F0A95DA19354
S1130330009779F7B111B1931192CB010C94A001FC
S1130340DC01FC01672F71917723E1F7329704C038
S11303507C916D9370836291AE17BF07C8F30895C3
S1070360F894FFCF3B
S1130364536F696C206D6F6973747572653A0D0A05
S1050374000083
S9030000FC
