:100000000C9434000C9451000C9451000C94510049
:100010000C9451000C9451000C9451000C9451001C
:100020000C9451000C9451000C9451000C9451000C
:100030000C9451000C948D000C9451000C945100C0
:100040000C9451000C9451000C94D3000C940101B9
:100050000C9451000C9451000C9451000C945100DC
:100060000C9451000C94510011241FBECFEFD8E026
:10007000DEBFCDBF11E0A0E0B1E0EEE3F3E002C0EF
:1000800005900D92A231B107D9F721E0A2E1B1E0CC
:1000900001C01D92A735B207E1F70E9471000C94D0
:1000A0009D010C940000FC01808121E030E002C041
:1000B000220F331F6A95E2F7209582238083818186
:1000C000282321830895FC01808190E002C095954A
:1000D00087956A95E2F780FD02C080E0089581E08F
:1000E000089587E690E00E942B0160E087E290E0AF
:1000F0000E94530080E091E00E945B01E1E8F0E0A3
:1001000080818C7F8083808184608083EFE6F0E053
:100110008081816080837894FFCF1F920F920FB609
:100120000F9211242F933F934F935F936F937F937D
:100130008F939F93AF93BF93EF93FF93CF93DF93EF
:1001400000D000D0CDB7DEB71A8219821C821B8284
:1001500060E086E290E00E9463004AE0BE016F5FCB
:100160007F4F90E00E946801CE0101960E945B01E2
:100170008EE091E00E945B010F900F900F900F9026
:10018000DF91CF91FF91EF91BF91AF919F918F91AF
:100190007F916F915F914F913F912F910F900FBE83
:1001A0000F901F9018951F920F920FB60F92112467
:1001B0002F938F939F93EF93FF938091C000209193
:1001C000C6008C71E0911401EF5FEF719091130103
:1001D000E91739F0E0931401F0E0E95EFE4F208367
:1001E00001C082E090911201892B80931201FF914E
:1001F000EF919F918F912F910F900FBE0F901F90B5
:1002000018951F920F920FB60F9211248F939F9300
:10021000EF93FF939091160180911501981769F063
:10022000E0911501EF5FEF71E0931501F0E0E95CFB
:10023000FE4F80818093C60005C0E1ECF0E0808134
:100240008F7D8083FF91EF919F918F910F900FBED3
:100250000F901F9018951092160110921501109290
:10026000140110921301282F392F33231CF422E09C
:100270002093C00090789093C5008093C40088E9D3
:100280008093C10086E08093C200089520911601FA
:100290002F5F2F71909115012917E1F3E22FF0E004
:1002A000E95CFE4F808320931601E1ECF0E0808151
:1002B000806280830895CF93DF93EC0103C0219681
:1002C0000E94460188818111FACFDF91CF91089574
:1002D000BB274A3031F4992322F4BDE290958195F1
:1002E0009F4F0C947401BB27FB015527AA27880F49
:1002F000991FAA1FA41710F0A41B83955051B9F79A
:10030000A05DAA3308F0A95DA193009779F7B11118
:10031000B1931192CB010C948D01DC01FC01672F8C
:1003200071917723E1F7329704C07C916D937083CC
:0E0330006291AE17BF07C8F30895F894FFCF8F
:10033E00536F696C206D6F6973747572653A0D0A2F
:02034E000000AD
:00000001FF
